:100000000C9434000C94CC020C94F5020C94510026
:100010000C9451000C9451000C9451000C9451001C
:100020000C9451000C9451000C9451000C9451000C
:100030000C9451000C9451000C942D030C9451001D
:100040000C9451000C9451000C9451000C945100EC
:100050000C9451000C9451000C9451000C945100DC
:100060000C9451000C94510011241FBECFEFD8E026
:10007000DEBFCDBF11E0A0E0B1E0E4E0F4E102C0FA
:1000800005900D92A832B107D9F721E0A8E2B1E0BE
:1000900001C01D92A133B207E1F70E9477060C94CC
:1000A000000A0C940000CF92DF92EF92FF92CF9360
:1000B000DF930F92CDB7DEB741E050E064E082E01D
:1000C00090E00E940102198289818E3118F140E08E
:1000D00050E064E082E090E00E94010288E8C82ECF
:1000E00083E1D82EE12CF12C65E082E090E00E94C3
:1000F0004502892BC9F4C114D104E104F10471F45F
:1001000087EE93E00F90DF91CF91FF90EF90DF901B
:10011000CF90089589818F5F8983D6CF81E0C81AF7
:10012000D108E108F108E0CFCD28CE28CF2841F34F
:10013000E12CF12C670105C08FEFC81AD80AE80A34
:10014000F80A65E082E090E00E944502019741F4E0
:1001500088E8C81683E1D806E104F10469F7D0CF36
:1001600088E8C81683E1D806E104F10449F2B60133
:10017000C70128E730E040E050E00E94C806C9010E
:10018000C1CF41E050E064E082E090E00E94BA011B
:1001900040E050E065E082E090E00C94BA010F93FB
:1001A0001F93CF93DF9300D0CDB7DEB70E945300EB
:1001B0008C011A82198289819A81803D9740A8F02A
:1001C0000E945300073E23E0120741F0873E23E0E0
:1001D000920719F00817190708F4C8010F900F903B
:1001E000DF91CF911F910F91089589819A81019696
:1001F0009A838983E0CF22E330E040E050E061E081
:1002000080E00E94EA0388EE93E00C949703853B1C
:1002100008F084EB282F30E0A8EDBEE00E94B9067C
:1002200024EB40E050E00E94C806C90188519C4F71
:100230000C949703089580E00E94A5059C01ACE30F
:10024000B0E00E94B9062FEF33E040E050E00E949A
:10025000C806B901CA01089541E050E066E082E0B5
:1002600090E00E94BA0141E050E067E082E090E057
:100270000E94BA0128EE33E040E050E063E082E003
:100280000E94EA0340E063E082E00C9428050197B5
:100290004E97E0F484E08093280140E050E066E06F
:1002A00082E090E00E94010241E050E067E082E0DD
:1002B00090E00E94010240E063E082E00E94280595
:1002C0008091280181508093280108958091280110
:1002D0008111E3CF40E050E067E082E090E00E94CF
:1002E00001024AE063E082E00E94280541E050E01C
:1002F00066E082E090E00C94010240E855E260E0A4
:1003000074E284EF90E00C94F4050F931F93CF9365
:10031000DF93CDB7DEB7A0970FB6F894DEBF0FBE60
:10032000CDBF7F936F931F928F9381E291E09F9354
:100330008F938E010F5F1F4F1F930F930E94030730
:10034000F80101900020E9F73197BF01601BC80157
:100350000E940E060FB6F894DEBF0FBECDBFA0966A
:100360000FB6F894DEBF0FBECDBFDF91CF911F91C6
:100370000F91089581309105D1F08230910561F19E
:10038000892BD9F581E090E0A0E0B0E004C0880FAF
:10039000991FAA1FBB1F6A95D2F724B1413051059E
:1003A00019F4822B84B9089580958223FBCF81E0D4
:1003B00090E0A0E0B0E004C0880F991FAA1FBB1F07
:1003C0006A95D2F727B14130510519F4822B87B9CC
:1003D000089580958223FBCF81E090E0A0E0B0E01B
:1003E00004C0880F991FAA1FBB1F6A95D2F72AB1B4
:1003F0004130510519F4822B8AB9089580958223E2
:10040000FBCF81309105C9F08230910551F1892BE4
:10041000C1F581E090E0A0E0B0E004C0880F991F32
:10042000AA1FBB1F6A95D2F725B1452B19F0822B65
:1004300085B9089580958223FBCF81E090E0A0E00C
:10044000B0E004C0880F991FAA1FBB1F6A95D2F79E
:1004500028B1452B19F0822B88B908958095822305
:10046000FBCF81E090E0A0E0B0E004C0880F991FCE
:10047000AA1FBB1F6A95D2F72BB1452B19F0822B0F
:100480008BB9089580958223FBCF8130910599F037
:100490008230910591F0892B91F483B190E0A0E036
:1004A000B0E004C0B695A795979587956A95D2F761
:1004B00081709927089586B1F1CF89B1EFCF80E09F
:1004C00090E0089581309105A1F08230910501F10D
:1004D000892B61F525B181E090E0A0E0B0E004C097
:1004E000880F991FAA1FBB1F6A95D2F7822785B96B
:1004F000089528B181E090E0A0E0B0E004C0880F4A
:10050000991FAA1FBB1F6A95D2F7822788B9089541
:100510002BB181E090E0A0E0B0E004C0880F991F0B
:10052000AA1FBB1F6A95D2F782278BB90895F8944A
:10053000813088F4809169008C7F8093690080917C
:100540006900862B8093690040932B0150932C0106
:10055000E89A78940895E9F780916900837F809301
:10056000690080916900660F660F682B60936900CF
:100570004093290150932A01E99AEBCF813010F47E
:10058000E89A089509F4E99A0895813010F4E898FA
:10059000089509F4E99808951F920F920FB60F92EB
:1005A00011242F933F934F935F936F937F938F9378
:1005B0009F93AF93BF93EF93FF93E0912B01F09143
:1005C0002C01309709F00995FF91EF91BF91AF9100
:1005D0009F918F917F916F915F914F913F912F915B
:1005E0000F900FBE0F901F9018951F920F920FB68D
:1005F0000F9211242F933F934F935F936F937F93A9
:100600008F939F93AF93BF93EF93FF93E091290153
:10061000F0912A01309709F00995FF91EF91BF9170
:10062000AF919F918F917F916F915F914F913F918A
:100630002F910F900FBE0F901F90189584B5826078
:1006400084BD89EF87BDEEE6F0E080818260808323
:1006500085B5836085BD789408951F921FB61F925B
:1006600011248F939F93AF93BF9380912D0190910D
:100670002E01A0912F01B09130010196A11DB11D55
:1006800080932D0190932E01A0932F01B093300100
:10069000BF91AF919F918F911F901FBE1F90189592
:1006A0002FB7F89460912D0170912E0180912F0148
:1006B000909130012FBF089522EA2093800028E115
:1006C00020938100709387006093860080349105A9
:1006D00031F148F48130910511F0089779F080915B
:1006E000810081600EC0811521E09207E1F0811543
:1006F0009440A9F780918100856003C080918100BA
:10070000826080938100109289001092880010927C
:100710008B0010928A0084B1866084B9089580911C
:1007200081008360EECF809181008460EACF2091C8
:100730008600309187002817390720F480918600C1
:10074000909187009093890080938800089520916C
:100750008600309187002817390720F480918600A1
:100760009091870090938B0080938A000895E1E830
:10077000F0E08081887F8083089523EA2093B00091
:100780009C0121503109AC0142275327241735071A
:1007900098F40E94EA0601978930910568F4805028
:1007A0009F4FFC0180818093B1001092B3001092A2
:1007B000B400239A539A089587E0F5CF8093B3004D
:1007C00008958093B4000895E1EBF0E08081887F84
:1007D000808308952F923F924F925F926F927F9203
:1007E0008F929F92AF92BF92CF92DF92EF92FF9241
:1007F0000F931F93CF93DF93CDB7DEB760970FB6FC
:10080000F894DEBF0FBECDBF69017A018111D2C05D
:100810008FEF860F823008F068C08AE0E9E0F1E0EF
:10082000DE01119601900D928A95E1F78E010F5F1E
:100830001F4F3E012BE0620E711C212C24E2322E50
:1008400024EF422E512CF801A080B180D5019601F1
:10085000A7010E94F8069B01AC01B101C2010E94F0
:10086000C806B901CA01615071098109910900974F
:10087000F1F00E5F1F4F6016710629F760960FB6F4
:10088000F894DEBF0FBECDBFDF91CF911F910F91C6
:10089000FF90EF90DF90CF90BF90AF909F908F90A0
:1008A0007F906F905F904F903F902F900895A1148C
:1008B000B10421F3C50160960FB6F894DEBF0FBEF8
:1008C000CDBFDF91CF911F910F91FF90EF90DF90FF
:1008D000CF90BF90AF909F908F907F906F905F90E0
:1008E0004F903F902F900C945C03633039F68EE06C
:1008F000E3E1F1E0DE01119601900D928A95E1F7B6
:100900008E010F5F1F4F4E012FE0820E911C9FEF53
:10091000792E672C2301B12C84E0888BF801A0800C
:10092000F181FF870E5F1F4F3A2C212C910140E08F
:1009300050E060E074E284EF90E00E94C806C216C6
:10094000D306E406F50678F5C901DA018C199D098C
:10095000AE09BF0984159505A605B70528F42C0135
:100960003D01BA2C2F85288B08151905B9F68B2D5A
:10097000988960960FB6F894DEBF0FBECDBFDF91A9
:10098000CF911F910F91FF90EF90DF90CF90BF908C
:10099000AF909F908F907F906F905F904F903F901F
:1009A0002F900C94BD03C601D701821B930BA40B9F
:1009B000B50BD0CF823009F061CF633009F05ECF44
:1009C0008EE0E3E1F1E0DE01119601900D928A954F
:1009D000E1F78E010F5F1F4F1E018FE0280E311CC3
:1009E0008FEF782E672C2301B12CE4E0E88BF8011F
:1009F000A080F181FF870E5F1F4F9A2C812C9401FC
:100A000040E050E060E074E284EF90E00E94C806AD
:100A1000C216D306E406F506A0F4C901DA018C1962
:100A20009D09AE09BF0984159505A605B70528F4EB
:100A30002C013D01BA2C2F85288B02151305B9F620
:100A400096CFC601D701821B930BA40BB50BEBCF3E
:100A5000982F842F911128C0613081F4A0918600D5
:100A6000B0918700242F30E00E94B9062FEF40E0BC
:100A700050E00E94C806C9010C949703623081F4CB
:100A8000A0918600B0918700242F30E00E94B90623
:100A90002FEF40E050E00E94C806C9010C94A70364
:100AA000633041F40C94DE03923021F4633011F48E
:100AB0000C94E103089581110AC08FEF860F8230F4
:100AC00010F40C94B703633021F40C94E4038230E7
:100AD000D1F30895F999FECF92BD81BDF89A80B502
:100AE0000895F999FECF92BD81BD60BD8FB7F8948E
:100AF000FA9AF99A8FBF0895CF93DF9300D00F929F
:100B0000CDB7DEB789839A836B830E946A059B8188
:100B1000891751F0692F89819A810F900F900F905A
:100B2000DF91CF910C9471050F900F900F90DF9192
:100B3000CF91089580E480937C00EAE7F0E087E0BD
:100B40008083808180688083089590917C00877085
:100B5000907F892B80937C0080917A0080648093C1
:100B60007A0080917A0086FDFCCF80917800909188
:100B7000790008950F931F93CF93DF9300D000D097
:100B8000CDB7DEB78B019C01A0E0B0E0CD018017AE
:100B90009107A207B30749F40F900F900F900F90A1
:100BA000DF91CF911F910F91089519821A821B82B4
:100BB0001C8249815A816B817C81483E534061058A
:100BC000710520F00196A11DB11DE1CF0000498102
:100BD0005A816B817C814F5F5F4F6F4F7F4F49839D
:100BE0005A836B837C83E5CF9A0140E050E0E4E0D8
:100BF000220F331F441F551FEA95D1F70E94C806E4
:100C0000C901DA0101979093C5008093C40088E17F
:100C10008093C10086E08093C2000895FC01680FB4
:100C2000792F711DE617F70709F408958091C00028
:100C300085FFFCCF81918093C600F4CFEF92FF92A5
:100C40000F931F93CF93DF9300D000D000D0CDB788
:100C5000DEB78C010E94500369837A838B839C8367
:100C600078011D821E820E94500329813A814B81A6
:100C70005C81621B730B840B950B693E734081058D
:100C8000910528F44D815E8142335105A1F4ED8137
:100C9000FE81E00FF11F10828D819E810F900F90D9
:100CA0000F900F900F900F90DF91CF911F910F91A8
:100CB000FF90EF9008958091C00087FFD4CF80917E
:100CC000C600F70181937F010E94500369837A83F4
:100CD0008B839C83F70182918A30C9F28D30B9F2FF
:100CE0002D813E812F5F3F4F2D833E83BCCF00D0AF
:100CF00000D000D0CDB7DEB70E949A050E94FB005D
:100D00000E94C1000E942C010E941A010E947D01D4
:100D100012E08AE090E003C01EEF8AEA90E08D8343
:100D20009E830E941B0169837A838B839C838D81C0
:100D30000E94070169817A818B819C810E94BA059A
:100D40000E94CF0089839A830E94470169817A813A
:100D50008D810E9485018D819E81810F911D17FDDE
:100D60009A958D839E838A3A9105B4F60B9784F207
:100D7000D8CFA29FB001B39FC001A39F700D811D6A
:100D80001124911DB29F700D811D1124911D089594
:100D9000A1E21A2EAA1BBB1BFD010DC0AA1FBB1F7F
:100DA000EE1FFF1FA217B307E407F50720F0A21BF1
:100DB000B30BE40BF50B661F771F881F991F1A945E
:100DC00069F760957095809590959B01AC01BD0188
:100DD000CF010895AA2781110C94F206A8E0892B6F
:100DE000D9F70895A3958695E8F78A2F992708954E
:100DF0000E94B906A59F900DB49F900DA49F800DF1
:100E0000911D11240895AEE0B0E0E9E0F7E00C9404
:100E1000D90986E08C832B893C8929833A838FEF1B
:100E20009FE78D839E83AE01495E5F4F6D897E890A
:100E3000CE0101960E942707EF81F8852B893C8916
:100E4000E20FF31F10822E96E2E00C94F509ACE05D
:100E5000B0E0EDE2F7E00C94CC095C016B017A01A3
:100E6000FC0116821782838181FFD3C12AE0522EB2
:100E7000F5012381F60123FD859123FF81916F0107
:100E8000811509F42CC1853239F423FD959123FF96
:100E900091916F01953229F4B50190E00E942209E9
:100EA000E7CF30E0712C00E010E0103210F59B32FB
:100EB000C9F050F49032B9F09332C9F09E3261F526
:100EC00016FD0DC1106405C09D3279F0903399F480
:100ED0001160F60123FD959123FF91916F0191110E
:100EE000E4CF23C012601460F4CF1860F2CF106119
:100EF000F0CF17FD1AC080ED890F8A30F8F616FF83
:100F000005C0759C800D1124782EE3CF059D800DC2
:100F10001124082F1062DDCF9C3611F41068D9CF50
:100F20009C3409F440C09836A1F2892F8F7D8554F6
:100F30008330D8F1933609F45FC0933709F46AC05F
:100F4000933509F476C0943619F0993609F0A2C0A9
:100F5000F70117FF98C061917191819191917F0183
:100F60001F7697FF03C00E94C10910682AE030E095
:100F70004E014FEF841A940AA4010E946309682E5F
:100F8000681816FFD2C0812F8E7F671408F0CCC07E
:100F900014FF1DC112FD11C11E7E972C812F867872
:100FA00009F4CEC00FC131E094CF311509F1F8E05A
:100FB000EF0EF11C8FE3898391E0692E712C4E01B5
:100FC0008FEF881A980A1F7713FD04C0601671040A
:100FD00008F43FC06114710409F042C0011509F41E
:100FE00047CFB50180E290E00E9422090150F6CF80
:100FF00044E0E40EF11CDECFF70180818983F2E04A
:10100000EF0EF11C81E0682E712C4E014FEF841A17
:10101000940AD9CFF701819091907F01672D70E0FC
:1010200016FD02C06FEF7FEFC4010E9417093C015B
:10103000CACFF701819091907F01672D70E016FD76
:1010400002C06FEF7FEFC4010E940C093C011068E1
:10105000BBCFB50180E290E00E9422090150B6CFDB
:10106000F40117FD859117FF81914F01B50190E0C3
:101070000E94220981E0011101C080E0081BF1E01B
:101080006F1A7108A7CF61917191872F880F880B14
:10109000982F65CF9537C9F41F7E1C872AE030E072
:1010A000FC85F7FF3BC0F7016191719181919191AE
:1010B0007F014E014FEF841A940AA4010E94630934
:1010C000682E68181C851F775CCF812F897F8C87DD
:1010D000903799F058F49835B9F09F36E1F0F50162
:1010E000868197812C96EFE00C94E8099837B9F740
:1010F00014FD06C020E130E0D3CF9C8590619C8731
:10110000EC85E460EC87F6CF14FF02C016601C8704
:1011100020E132E0C5CF28E030E0C2CFF701619195
:10112000719180E090E0C4CF182F962C14FF36CF39
:10113000FE01E60DF11D8081803309F041C0197E6A
:1011400013FD0EC010FF4FC0762C901618F4700ED1
:101150007918902E802F8919091508F480E0980ECF
:10116000901608F042C0091914FF41C0B50180E390
:1011700090E00E94220912FF09C088E590E011FD6D
:1011800002C088E790E0B5010E9422096714D0F1FF
:101190004E018FEF881A980A6A94FE013296E60D86
:1011A000F11D3F01F30182913F01B50190E00E94E2
:1011B000220968147904B1F711CF972C182FB8CFF2
:1011C00012FD02C09394BCCF93949394B9CF972C03
:1011D000182FE4CEB50180E290E00E9422098394AA
:1011E0008016C0F3B7CF892CFBCF00E0BDCF812F95
:1011F000867861F280E211FD8BE217FD8DE2B50188
:1012000090E0C2CFB50180E390E00E9422097A9479
:10121000BDCF8FEF9FEF66CFFC010590615070400E
:101220000110D8F7809590958E0F9F1F0895FC01AF
:101230006150704001900110D8F7809590958E0F05
:101240009F1F0895A3E0B0E0E8E2F9E00C94D8090C
:10125000182F99836A837B83DB0113968C9181FD20
:1012600009C01FEFBFEFB983812F99812396E3E077
:101270000C94F40982FF1BC0EA81FB81268137812F
:10128000848195812817390754F40190F081E02D6D
:10129000CF010196AA81BB818D939D931083EA8132
:1012A000FB8186819781019686839783DDCFAA8112
:1012B000BB811896ED91FD911A97BD01812F09957B
:1012C000892B69F3CECFFA01AA27283051F12031BA
:1012D00081F1E8946F936E7F6E5F7F4F8F4F9F4FCA
:1012E000AF4FB1E03ED0B4E03CD0670F781F891F0C
:1012F0009A1FA11D680F791F8A1F911DA11D6A0FDA
:10130000711D811D911DA11D20D009F468943F918C
:101310002AE0269F11243019305D3193DEF6CF018B
:101320000895462F4770405D4193B3E00FD0C9F751
:10133000F6CF462F4F70405D4A3318F0495D31FDBE
:101340004052419302D0A9F7EACFB4E0A695979511
:10135000879577956795BA95C9F7009761057105E7
:1013600008959B01AC010A2E069457954795379531
:101370002795BA95C9F7620F731F841F951FA01D8B
:10138000089590958095709561957F4F8F4F9F4FF1
:1013900008952F923F924F925F926F927F928F9219
:1013A0009F92AF92BF92CF92DF92EF92FF920F93F4
:1013B0001F93CF93DF93CDB7DEB7CA1BDB0B0FB6FE
:1013C000F894DEBF0FBECDBF09942A8839884888BB
:1013D0005F846E847D848C849B84AA84B984C88451
:1013E000DF80EE80FD800C811B81AA81B981CE0F48
:1013F000D11D0FB6F894DEBF0FBECDBFED0108952D
:04140000F894FFCF8E
:101404000107070207030405060100080040000065
:1014140001000401000800200040008000000100D9
:081424000425642C25640A0074
:00000001FF
